:100000000C9434000C943E000C943E000C943E0082
:100010000C943E000C943E000C943E000C943E0068
:100020000C943E000C943E000C943E000C943E0058
:100030000C943E000C943E000C943E000C943E0048
:100040000C943E000C943E000C943E000C943E0038
:100050000C943E000C943E000C943E000C943E0028
:100060000C943E000C943E0011241FBECFEFD8E04C
:10007000DEBFCDBF0E9440000C945A000C940000DB
:1000800014B88FEF8AB936E483B125B190E002C08D
:10009000959587952A95E2F780FFF6CF3BB92FEF2C
:1000A00089E698E1215080409040E1F700C00000CF
:0800B0001BB8EACFF894FFCF62
:00000001FF
