S00B000042696E2E7372656300
S11300000C9434000C943E000C943E000C943E007E
S11300100C943E000C943E000C943E000C943E0064
S11300200C943E000C943E000C943E000C943E0054
S11300300C943E000C943E000C943E000C943E0044
S11300400C943E000C943E000C943E000C943E0034
S11300500C943E000C943E000C943E000C943E0024
S11300600C943E000C943E0011241FBECFEFD8E048
S1130070DEBFCDBF0E9440000C946D000C940000C4
S1130080219A109285001092840083EC99E0909359
S113009087008093860082E8809380008AE18093C1
S11300A08100E8E8F0E04FEA50E01182108283B169
S11300B025B190E002C0959587952A95E2F780FFD7
S11300C0F4CF518340832FE38DE093E021508040AF
S11100D09040E1F700C00000E8CFF894FFCFA5
S9030000FC
