S00B000042696E2E7372656300
S11300000C9434000C943E000C943E000C943E007E
S11300100C943E000C943E000C943E000C943E0064
S11300200C943E000C943E000C943E000C943E0054
S11300300C943E000C943E000C943E000C943E0044
S11300400C943E000C943E000C943E000C943E0034
S11300500C943E000C943E000C943E000C943E0024
S11300600C943E000C943E0011241FBECFEFD8E048
S1130070DEBFCDBF0E9440000C946C000C940000C5
S1130080569A16BC84B5836884BD85B5846085BDE5
S11300908DE717BC309B15C017BC2FE33DE093E000
S11300A0215030409040E1F700C0000087BD2FE3AD
S11300B03DE093E0215030409040E1F700C0000063
S11300C0E8CF17BC2FE33DE093E02150304090404F
S10F00D0E1F700C00000DDCFF894FFCF82
S9030000FC
