S00B000042696E2E7372656300
S11300000C9434000C9446000C9446000C94460066
S11300100C9446000C9446000C9446000C94460044
S11300200C9446000C9446000C9446000C94460034
S11300300C9446000C9448000C9446000C94460022
S11300400C9446000C9446000C9446000C94460014
S11300500C9446000C9446000C9446000C94460004
S11300600C9446000C94460011241FBECFEFD8E038
S1130070DEBFCDBF21E0A0E0B1E001C01D92A230FF
S1130080B207E1F70E945F000C94EC010C940000AD
S11300901F920F920FB60F9211248F939F9380910A
S11300A00001909101010196909301018093000158
S11300B09F918F910F900FBE0F901F90189584B150
S11300C0866084B9289A789481E080936F001092B6
S11300D0800087B187B9569A16BC84B5836884BDFD
S11300E085B5826085BD04E810E0C1E8D0E00F2E3C
S11300F0F1E4BF2EF02D6894CC24C5F8DD24D3940C
S11301000F2EF6E8EF2EF12CF02D0F2EFFEAAF2E76
S1130110F02D229A299A83E08A95F1F70000299814
S1130120F80111821082B882C6BAD6BAB59BFECF46
S1130130F80111821082D882C6BAD6BA109201018F
S113014010920001B59BFECFF7016081718180E0C0
S113015090E00E943C0129E23CE349EE53E40E9412
S1130160C80020E030E040EA50E40E94C300882345
S11301701CF42A9A17BCCDCF2A98309B02C0A7BC86
S1130180C8CF17BCC6CF0E94770108F481E0089558
S11301900E94DC000C94B2010E94AB0158F00E9452
S11301A0A40140F029F45F3F29F00C949B01511104
S11301B00C94E6010C94A1010E94C30168F39923F5
S11301C0B1F3552391F3951B550BBB27AA2762174F
S11301D07307840738F09F5F5F4F220F331F441F5C
S11301E0AA1FA9F335D00E2E3AF0E0E832D0915090
S11301F05040E695001CCAF72BD0FE2F29D0660F7D
S1130200771F881FBB1F261737074807AB07B0E8BF
S113021009F0BB0B802DBF01FF2793585F4F3AF0C5
S11302209E3F510578F00C949B010C94E6015F3FCE
S1130230E4F3983ED4F3869577956795B795F7954B
S11302409F5FC9F7880F911D9695879597F9089533
S1130250E1E0660F771F881FBB1F621773078407CF
S1130260BA0720F0621B730B840BBA0BEE1F88F7DE
S1130270E0950895E89409C097FB3EF49095809525
S1130280709561957F4F8F4F9F4F9923A9F0F92F58
S113029096E9BB279395F695879577956795B795D6
S11302A0F111F8CFFAF4BB0F11F460FF1BC06F5FBC
S11302B07F4F8F4F9F4F16C0882311F096E911C0CE
S11302C0772321F09EE8872F762F05C0662371F0EF
S11302D096E8862F70E060E02AF09A95660F771F03
S11302E0881FDAF7880F9695879597F90895990FDF
S11302F00008550FAA0BE0E8FEEF16161706E807EC
S1130300F907C0F012161306E407F50798F0621B0C
S1130310730B840B950B39F40A2661F0232B242BE1
S1130320252B21F408950A2609F4A140A6958FEF00
S1130330811D811D089597F99F6780E870E060E052
S113034008959FEF80EC089500240A94161617066A
S113035018060906089500240A94121613061406B2
S113036005060895092E0394000C11F4882352F015
S1130370BB0F40F4BF2B11F460FF04C06F5F7F4FCD
S11303808F4F9F4F089557FD9058440F551F59F0B4
S11303905F3F71F04795880F97FB991F61F09F3F6E
S11303A079F087950895121613061406551FF2CF97
S11303B04695F1DF08C0161617061806991FF1CFE7
S11303C086957105610508940895E894BB2766270E
S10F03D07727CB0197F90895F894FFCF2C
S9030000FC
