:100000000C9434000C943E000C943E000C943E0082
:100010000C943E000C943E000C943E000C943E0068
:100020000C943E000C943E000C943E000C943E0058
:100030000C943E000C943E000C943E000C943E0048
:100040000C943E000C943E000C943E000C943E0038
:100050000C943E000C943E000C943E000C943E0028
:100060000C943E000C943E0011241FBECFEFD8E04C
:10007000DEBFCDBF0E9440000C946E000C940000C7
:1000800087B187B9569A16BC84B5836884BD85B597
:10009000826085BD9FEA86B18823A9F017BC2FED49
:1000A00033E984E0215030408040E1F700C0000097
:1000B00097BD2FED33E984E0215030408040E1F7D7
:1000C00000C00000E8CF17BC2FED33E984E02150D9
:1000D00030408040E1F700C00000DDCFF894FFCF52
:00000001FF
