S00B000042696E2E7372656300
S11300000C9434000C943E000C943E000C943E007E
S11300100C943E000C943E000C943E000C943E0064
S11300200C943E000C943E000C943E000C943E0054
S11300300C943E000C943E000C943E000C943E0044
S11300400C943E000C943E000C943E000C943E0034
S11300500C943E000C943E000C943E000C943E0024
S11300600C943E000C943E0011241FBECFEFD8E048
S1130070DEBFCDBF0E9440000C947B000C940000B6
S1130080219A109285001092840083EC99E0909359
S113009087008093860082E8809380008BE18093C0
S11300A08100E8E8F0E041E450E01182108283B17D
S11300B025B190E002C0959587952A95E2F780FFD7
S11300C0F4CF4A9B0CC0118210822FEF80E792E09C
S11300D0215080409040E1F700C00000E6CF5183FA
S11300E040832FEF80E792E0215080409040E1F779
S10D00F000C00000DACFF894FFCF3F
S9030000FC
