S00B000042696E2E7372656300
S11300000C9434000C943E000C943E000C943E007E
S11300100C943E000C943E000C943E000C943E0064
S11300200C943E000C943E000C943E000C943E0054
S11300300C943E000C943E000C943E000C943E0044
S11300400C943E000C943E000C943E000C943E0034
S11300500C943E000C943E000C943E000C943E0024
S11300600C943E000C943E0011241FBECFEFD8E048
S1130070DEBFCDBF0E9440000C9477000C940000BA
S1130080219A109285001092840083EC99E0909359
S113009087008093860082E8809380008AE18093C1
S11300A08100E8E8F0E06CE271E04FEA50E0118290
S11300B0108283B125B190E002C0959587952A9569
S11300C0E2F780FFF4CF4A9B09C05183408387EA5B
S11300D091E60197F1F700C00000E9CF71836083D6
S11300E087EA91E60197F1F700C00000E0CFF894A9
S10500F0FFCF3C
S9030000FC
