S0130000536572766F5F6D6F746F722E7372656372
S11300000C9434000C943E000C943E000C943E007E
S11300100C943E000C943E000C943E000C943E0064
S11300200C943E000C943E000C943E000C943E0054
S11300300C943E000C943E000C943E000C943E0044
S11300400C943E000C943E000C943E000C943E0034
S11300500C943E000C943E000C943E000C943E0024
S11300600C943E000C943E0011241FBECFEFD8E048
S1130070DEBFCDBF0E9440000C946C000C940000C5
S1130080219A109285001092840083EC99E0909359
S113009087008093860082E8809380008BE18093C0
S11300A08100E8E8F0E08FEA90E0118210822FEFFF
S11300B031EE44E0215030404040E1F700C0000000
S11300C0918380832FEF31EE44E021503040404053
S10F00D0E1F700C00000E9CFF894FFCF76
S9030000FC
